:020000040800F2
:1000000000A0002045C90008B9C90008B9C9000806
:10001000B9C90008B9C90008B9C900080000000042
:10002000000000000000000000000000B9C9000846
:10003000B9C9000800000000B9C9000835AA0008C5
:10004000B9C90008B9C90008B9C90008B9C9000888
:10005000B9C90008B9C90008B9C90008B9C9000878
:10006000B9C9000845AA0008B9C90008B9C90008FB
:10007000B9C90008B9C90008EDA90008B9C9000844
:10008000B9C90008B9C90008B9C90008B9C9000848
:10009000B9C90008B9C90008B9C90008B9C9000838
:1000A000B9C90008B9C90008B9C90008B9C9000828
:1000B000B9C90008B9C90008B9C90008B9C9000818
:1000C000B9C90008B9C90008B9C90008B9C9000808
:1000D000B9C90008E1A90008D5A90008B9C90008F4
:1000E0004BAA0008B9C90008B9C90008B9C9000875
:1000F000B9C90008B9C90008B9C90008B9C90008D8
:10010000000000000000000000000000B9C9000865
:10011000B9C90008B9C90008B9C90008B9C90008B7
:10012000B9C90008B9C90008B9C90008B9C90008A7
:10013000B9C90008B9C900080000000000000000AB
:10014000B9C90008B9C90008B9C900080000000011
:10015000000000000000000000000000000000009F
:100160000000000000000000B9C90008B9C900087B
:10017000B9C90008000000000000000000000000F5
:0801800000000000B9C90008ED
:100188002DE9F04F314C324B2360B3B0002363604C
:1001980007F06AFC18B906F077FF07F017FE07F0BA
:1001A80087FC94F808802B4D48F0010323722A4BF2
:1001B8004FF47002C3F888200023089309930A9328
:1001C8002B6843F480332B602B6803F400330993C6
:1001D800089B01330893099B1BB9089BB3F5A04FF3
:1001E800F2D12B6813F4003318BF01230993099B3C
:1001F800012B35D102230A93184B12221A606B681F
:100208006B606B686B606B6843F480636B606B68F2
:1002180023F47C136B606B6843F4E8136B602B6802
:1002280043F080732B602A680A4B9001FBD55A680B
:1002380022F003025A605A6842F002025A606B6860
:1002480003F00C03082BFAD10CE000BFE4090020EE
:10025800D17500080010024000ED00E000200240C7
:1002680001230A930A9BC04FE360C04BFB606B6A93
:1002780023616B6ADFF83893DFF81CA343F08073BF
:100288006B626B6943F4FC0332AE6B6103238DF838
:100298007A3041F6FF7326F8503D4FF090403146D2
:1002A80009F048F84FF6FF73B148ADF87830314699
:1002B80009F040F84846314609F03CF8AD48314667
:1002C80009F038F8AC48314609F034F83146AB4803
:1002D80009F030F8304608F09BFE1E9BA84AA94951
:1002E800DFF8D0C2B3FBF2F36361A74B0022A2612F
:1002F8005A60A64B5960F02187F823109A600722AC
:100308001A60A34FDCF80830CAF800300FCFB646A1
:10031800AEE80F000FCFAEE80F0097E80F008EE8A9
:100328000F006B6943F400236B616B6943F400238E
:100338006B616B6943F400236B616B6943F40033B1
:100348006B614FF0904310221A8520221A854022B3
:100358001A854FF40043C9F818304FF48043C9F8A0
:1003680018304FF40053C9F818300DF1AC0B0DF1EB
:100378007C09674659F8040C494609F1080908F050
:10038800D9FFD945F6D1DFF830A28248C4F820A0B9
:100398000423002130224FF0010984F824300DF0A5
:1003A80017FF7B7984F8349084F858300021AAF537
:1003B800B6731C2217A8E3650DF00AFF7649774A41
:1003C8000B682266590358BF754BDFF8F0B158BF68
:1003D80083F8009048F0050884F808806B69DFF816
:1003E800908143F480236B61EB6943F40013EB6164
:1003F8002B6B23F010032B632B6B43F010032B6341
:10040800D8F8243023F00F03C8F82430D8F8243063
:1004180043F00403C8F82430D8F8243023F0F0035C
:10042800C8F82430D8F824304FF4807143F04003E2
:10043800C8F824304FF000094FF0020C03231E9136
:10044800404631468DF87CC08DF87D300393CDF859
:1004580010C005928DF87E908DF87F9005F0DEFB38
:100468004FF400711E914046314605F0D7FB059ABE
:10047800116821F00101116010684A4901401160BA
:1004880049491161116841F001011160C2F80890F1
:10049800C2F80C90C2F80890916841F4004191604C
:1004A80011681160516821F0784121F400415160D0
:1004B800116841F00101116037490A68584602F095
:1004C800020A494610220DF083FE4FF6FF72DDF84E
:1004D80010C0039B13928DF851C08DF852908DF87F
:1004E80053908DF85030BAF1000F11D032A94FF067
:1004F800010A41F87CAD404605F090FB0C238BF8CF
:10050800003007238BF801908BF803308BF802A09A
:10051800EB6A23F4F873EB62EB6A43F4D873EB628B
:100528006B6943F0805343F002036B61EB6A23F479
:100538007853EB62EB6A43F0805343F45853EB6211
:100548006B6943F0005343F002036B61174D284673
:1005580008F0F0FB002320932293289323934FF471
:10056800807324932CE000BF00ED00E00005FA053D
:1005780000040048000C004800100048001400481F
:1005880040420F003F190100FC09002010E000E084
:1005980024FF00080C0A0020100500200054004029
:1005A800A0090020FFE0CF007A25E00058040240AF
:1005B80000080048B4190020301B0020C61F002086
:1005C8004FF48063BF4A2593202328461E92269322
:1005D800BD4A1F924FF4005331462793ADF884A0CB
:1005E80008F08AFB2B6843F001032B60B74DAB681A
:1005F80023F04053AB60AB6843F08053AB600A20F4
:1006080007F00DF8AB6823F08043AB60AB68AB60D4
:10061800AB6843F00043AB60AA68AC4B002AFBDB35
:100628009A68AB4922F040529A609A6842F00052A8
:100638009A608868A74A024042F468328A60D9689A
:10064800A54A0A4042F40052DA601A6B0AF1FF3AEE
:1006580022F00F024AEA02021A63002001230BEB80
:100668000002917800297BD09C4992F803E0415C14
:10067800964A5D1C042BEDB211D81BB203EB430361
:10068800D2F830805B004FF01F0C0CFA03FC28EA0C
:100698000C0C01FA03F34CEA0303136338E0092B4B
:1006A80012D84FF0060C053B0CFB03F3D2F834804C
:1006B8004FF01F0C0CFA03FC28EA0C0C01FA03F3A8
:1006C8004CEA0303536323E00E2B4FF0060C0FD8BC
:1006D8000A3B0CFB03FCD2F838801F2303FA0CF307
:1006E80028EA030301FA0CFC43EA0C0393630FE0C6
:1006F8000F3B0CFB03F3D2F83C804FF01F0C0CFAB5
:1007080003FC28EA0C0C01FA03F34CEA0303D36355
:1007180009296E4B11D90A399A699A6901EB410185
:100728004FF0070C0CFA01FC22EA0C029A619A6954
:100738000EFA01F11143996113E001395A695A69B6
:1007480001EB41014FF0380C0CFA01FC22EA0C02D3
:100758005A615A6903310EFA01F11143596100E0F7
:100768001D460430102801D02B4678E7574B9A686D
:1007780042F001029A6019460A68544BD207FBD529
:10078800DA6822F00202DA60DA6842F00202DA601D
:10079800DA6842F00102DA609A6842F004029A606C
:1007A800B7F8E8304E4A002B40F0C787B2F9EA1094
:1007B800002940F0C287B2F9EC20002A40F0BD873A
:1007C800DFF82C9197F8EF30DFF8288106930025A1
:1007D80097F8F730DFF814B1079329460C2209F18E
:1007E8006C0088F80050B7F8F0A00DF0F1FC29462D
:1007F800102209F178000DF0EBFC29460C228BF849
:1008080000508BF8015009F188000DF0E1FC23201D
:10081800C4F8945006F003FF752001210BAA07F0D5
:1008280057F800287FD02F4AC9F88C202E4AC9F8DB
:100838009020432289F8882028460FAA0121CDF864
:100848000CB007F045F89DF83C20039B02F07E02AF
:100858008DF83C2040B1682A06D101238BF800307E
:100868001D2389F888305EE09DF82C2002F07E0276
:10087800682A8DF82C2052D1022206201A700146CF
:10088800D4F88C30194D324698479DF87B309DF846
:100898007D9003F001035B0009F0010943EA89092F
:1008A8009DF8793003F0010359EA030924D0B9F11E
:1008B800010F01D1002303E0B9F1020F28D1012370
:1008C8006B7030E040040050480A002000040050DB
:1008D80000070050E010FCFF07C0FFFDC61F002006
:1008E800B4190020D9780008E5A60008D61F002012
:1008F800E4090020D81F00209C4B0C20D3F88C3032
:10090800012113AA98479DF84C3013F00F0301D129
:10091800022028E1042BD2D185F8019003E0702A47
:1009280004BF04221A70002284F89820904A8F4B42
:100938001278042A40F03B878E4A9A678E4D8F4A78
:10094800DA678F4AC3F8842028688E4A0723137011
:1009580040F001032B60069B092B914600F21C878F
:100968004FF0010E0EFA03FE40F202220EEA0202D6
:10097800002A40F00A8740F2FD110EEA0101002921
:1009880000F00387804BE366804B236740F0030049
:10099800082384F8992089F8013028602B689B0780
:1009A80001D5E36E98475046A36F9847DDF81CA021
:1009B800774B00221A709B46BAF1000F04D0AAF1B7
:1009C8000203022B00F2EB868DF878200C20002120
:1009D8000122334606F0E0FE002800F0E0869DF88C
:1009E8007830482B40F0DB866A4B6B4A1A606B4ABA
:1009F8005A6006238BF80030042389F803302B68EB
:100A080043F008032B6097F8E4300BB184F8983072
:100A180097F8E5300BB184F8993097F8E6300BB1C8
:100A28008BF8003097F8F830042B00F28980012504
:100A380005FA03F212F0160F40F0C18612F0090F02
:100A48007BD00A2006F0EBFD7720A0212A4613ABC5
:100A580006F0A2FE002800F0B2862A461E21772062
:100A680009F01AFF05F04AFB054605F047FB401B55
:100A7800B0F52F6FF9D30025A5F160014FF00009FB
:100A8800C9B20222334677208DF878908DF8799094
:100A980006F082FE9DF879309DF8781043EA01212E
:100AA800324B03F19A02A9520235102DE4D1B3F862
:100AB800A86006F00F0506F47F46A3F8A860012198
:100AC8004B464A4622F001002044B0F89A0000281C
:100AD80018BF002112F0010F03D0C0B24340082014
:100AE80002E083EA1023FAE713F4004F18BF83F4F7
:100AF800C05301384FEA4303F6D10132102AE1D13D
:100B08001A4A2E43A2F8A860002940F05886C3F379
:100B180003339D4240F05386214B42F210721A80F3
:100B28005A80204A5A60204A9A60204ADA60204A4D
:100B38001A61204A5A61032302E0012B00F03F8624
:100B4800104A93700C4B1A6842F004021A60E3686A
:100B5800012B05D198F8003043F0400388F80030A5
:100B680098F8000040B306F0BBFD00BFE409002080
:100B7800D61F0020457600087C060020955B0008FB
:100B880090C1793DC9000020E5750008DD5B0008CB
:100B9800B2060020EC1E0020B5A70008F1A6000848
:100BA800F41E0020DBA60008B9780008D1A60008CA
:100BB800C978000839580008237A43F002032372E1
:100BC800BE4B4FF480421A854FF400429A610F26BB
:100BD800BA4DAB8A9BB283F48043AB82AB8A9BB29B
:100BE80083F40043AB82AB8A9BB283F40053AB829D
:100BF800192006F014FD013E192006F010FD16F02C
:100C0800FF06E5D14FF40043AB614FF48043AB617D
:100C18004FF40053AB61AA4B1A6812F0080F9846BC
:100C280005D0A84B1B689847A74B01221A70A74DFF
:100C38009FEDA77A2988D4F8AC30A64E1B7BA4F880
:100C4800AA3007EE901AF8EEE77AA34BC7EE277A98
:100C5800FF211B2206F1B4009FEDA07A67EE877A88
:100C680094ED217AC3ED007ADFED9D7A67EE277A5D
:100C78009FED9C7A67EE877AC4ED2C7A0DF0A8FA7E
:100C8800002384F8B430D8F800300122990784F89A
:100C9800CF2007D586F8B520032286F8CF20022278
:100CA80086F8B6205A0708D594F8CF20511C22445C
:100CB80084F8CF10032182F8B41013F00A0F40F023
:100CC8008685894A13689E0608D594F8CF20511C5A
:100CD800224484F8CF10072182F8B4107A79082AC0
:100CE80001D00E2A08D194F8CF10481C214484F86A
:100CF800CF000B2081F8B40094F8CF10754E481C33
:100D0800C0B284F8CF000C444FF00C0E84F8B4E065
:100D18005C0706D50231304486F8CF10102180F8E0
:100D2800B4106C4C94F8CF106618481C4FF0120E93
:100D3800C0B286F8B4E05E0584F8CF0004D597F811
:100D4800A061002E40F05A85990508D594F8CF1077
:100D5800481C214484F8CF00152081F8B400182AD3
:100D680013D194F8CF106018162680F8B460481C88
:100D780054FA80F0172680F8B460C81C023154FA7F
:100D880081F184F8CF0081F8B420DA0508D594F809
:100D9800CF305A1C234484F8CF201A2283F8B42079
:100DA8000021982251480DF013FA012005F01CF992
:100DB800002690B3012E30D8DFF830A14FF04C0B4D
:100DC8000BFB06F90AEB090898F84A7017B10136C7
:100DD800F6B2EEE70179464B90F9002003EB810368
:100DE80003218DE8820010461B6B01213A4609F069
:100DF80000F9034668B1404639465A4603930DF058
:100E0800E7F9039B4AF8093001231E4488F84A3061
:100E1800F6B2012005F0C9F8CBE7364ED4F8D03049
:100E28003549C4F86831B6F8DE30A4F870310023CB
:100E38000B808B703149B6F82C010968B6F82AC1C5
:100E4800C4F8743101F17D0E2D49C4F8783106F5E6
:100E58008E726430C4F86C210A6084F87C3180B2E8
:100E6800A3F10802D2B2022A264F8CBF624602467C
:100E780027F81320244A1168244A01F5167142F80C
:100E880023100133122BEBD1174B186810F4805F35
:100E9800994614BFB6F82A31B6F83031FB800023E2
:100EA8001EF80320002A40D10EEB0302917892F835
:100EB80003C0614539D259B301392BE00008004815
:100EC8007C060020EC1E0020CC0600202C00002010
:100ED8000AE81C41E4090020980700200000C842E5
:100EE80035FA8E3CBD37863510050020B40A00203F
:100EF80024FF0008B419002070090020D80700203A
:100F08001805002020080020AC190020640B0020E0
:100F18000CF10101527801EB810101EB810101F52E
:100F28006171043289B227F812100433502BB7D1FB
:100F3800030740F1BB8096F82431062B00F2B180FC
:100F4800DFE803F004070E36506F6F0045F2F052E9
:100F580001E042F6F822824B1A8009F079F89FE006
:100F68007F4BB6F82A1142F6F8221A8009010A23A3
:100F780091FBF3F1A1F5B06100237A4A995004334B
:100F8800482BFAD1784B6B604020122384F8C83183
:100F980005F02AF8002800F0848001234FF00708A4
:100FA80090F90000714A8DE808014021704B72E009
:100FB8006B4B42F6F8221A806E4B6B604020102370
:100FC80084F8C83105F010F800286AD001234FF0E2
:100FD800000C90F90000684A8DE8081040214FF491
:100FE800E13358E05E4B42F6F8221A80634B6B609F
:100FF8004020082384F8C83104F0F6FF002850D0B8
:1010080001234FF0000E90F900005D4A8DE808407A
:1010180040214FF4E13308F0ECFF5A4BC3F8CC0100
:101028003BE04F4A584842F6F8211180062B4FF012
:101038000C0284F8C82110D00023037084F8D03142
:1010480084F8D1311B2384F8D231052384F8D321C5
:1010580084F8D4314FF4E1380EE00021017084F8AF
:10106800D01184F8D111DFF8548184F8D3212121DB
:1010780084F8D21184F8D431444B6B60402004F0DA
:10108800B3FF70B101210023414A90F900008DE8B7
:101098000A004021434608F0ACFF003018BF012089
:1010A80020B9082005F048FC3A4B6B60D9F80030AD
:1010B8005A0404D5122284F8C821374A6A6042F2D9
:1010C80001021A4003F4005182B1254A44F6206017
:1010D800108021B1082284F8C821304A6A60D807F4
:1010E80004D50C2384F8C8312D4B6B6094F8C831B3
:1010F800043B84F8C93105F001F82A4B186073796C
:10110800052B04D11F4B4FF4C872A3F8D62105F064
:10111800FBFA254B4FF47A721A80C823234AA4F8A5
:10112800D831234B00211160196090469A46D8F8AF
:101138000030002B44D1232504F0E0FF05F02EF900
:101148000A2006F06CFA013DF6D107F0D9FC194BDC
:101158001B68C8F80030184B1B68CAF80030E6E76F
:10116800040800206C050020E157000851630008BE
:10117800A0860100D1570008A1620008BD570008E9
:1011880055620008E4090020500600207D57000839
:101198003D61000835580008115800081D5800081E
:1011A80029580008E0070020AA1F00202407002073
:1011B80020070020F0060020F406002090D003004D
:1011C800C24A00231360CAF800300F254FF0050B00
:1011D80004F094FF05F0E2F80A2006F020FABBF1CB
:1011E800010BF5D107F08CFCB94AD8F8003011682A
:1011F800B84A19441268DAF80030C8F800101A44DE
:10120800013DCAF80020E1D10F23B04891FBF3F16A
:101218000160B14992FBF3F30B60B04B1A7842F0CE
:1012280008021A70AE4B1A7822F002021A70D9F826
:10123800002040F60203134063B1AA4BC4F8DC3126
:10124800032384F8E031A84BA4F8E25101221A7074
:10125800A4F8E451B368C9F80030A44BA44D0122A6
:101268001A70237A63F07F032372A24B4FF08042F7
:101278001A60A14BA14A1A60A14BA24A1A604FF406
:1012880096637B8195E80F000DF12C0E8EE80F0018
:1012980005F110030FCB0DF13C0C8CE80F0005F1A4
:1012A80020030FCB0DF14C08303588E80F0095E886
:1012B8000F001EAF87E80F0098E80F00924D85E8F1
:1012C8000F0097E80F0005F1100888E80F009CE868
:1012D8000F0005F1200888E80F009EE80F0005F1CF
:1012E800300C8CE80F004FF4967006F098F94FF424
:1012F8008C72864800210CF06BFF854BDA6942F04E
:101308000702DA619A6942F4A5229A615A6942F49D
:10131800C0225A6105F144002B1DA8469A7A93F819
:101328000BC053F8105B02F00701D20805EB8202EC
:101338008900156A4FF00F0A0CFA01FC0AFA01F14C
:1013480025EA01011162156A83424CEA050111621E
:10135800E4D1002384F8003384F8013384F802339D
:1013680084F803336B4AFF2199540133072BF9D1D1
:1013780073790E2B03D003F0EF03082B01D101235F
:1013880000E00023216A8DF86C300023C8188A1CFD
:1013980090F9020002281A4404D00833202BF5D112
:1013A800002306E022B15388003318BF012300E070
:1013B80013468DF86130D9F80030C3F340028DF838
:1013C8006220C3F380128DF86420C3F340328DF895
:1013D8005C20C3F3C0328DF85F2013F4006204D0A0
:1013E80096F81821911E4A424A4100208DF866005D
:1013F800C3F300508DF86700B6F8D600ADF86A0060
:10140800B6F8E2008DF86020ADF86800C3F300423A
:10141800C3F3804003F001018DF865208DF8630067
:10142800C3F3C002B6F8E000B6F8D4408DF85D10FA
:10143800DB048DF85E20ADF86E00ADF8704004D581
:10144800354BB3F8DC30ADF87030B0F5FA7F88BFB3
:101458000023324D88BFADF8703096F8683185F8B2
:101468000B33002385F80C3385F80D339DF86C3069
:10147800002B14BF0223002301B902B10133284A0B
:1014880002EB83034FF00009D3F890300693CA4665
:10149800069B33F809204FF6FF739A4200F02A8121
:1014A800D1B29DF862304FEA011C120A08EB0C0415
:1014B8003BB163681B48834203D12389012B00F0A9
:1014C8001381022A30D19DF85C3031E024070020D6
:1014D800F0060020F406002020070020B3060020B4
:1014E800C21F0020C21A0020CD000020A009002041
:1014F80074FF0008D4090020D8090020ABAAAA3F2D
:10150800DC09002026B4973E541F0020CC0B002095
:1015180000100240E80C0020B4190020E409002063
:1015280024FF000800040048012A04D19DF85D301A
:10153800002B00F0D9809DF8673033B19DF86C30EE
:101548001BB90439032940F2B880012A3CD1B04BB9
:101558006068C5F81C430026FF221E705E609E600E
:10156800DE601E6483F8442083F8452083F84660D3
:10157800228983F8476085F81063637B8DF87A3099
:101588004FF0020B3946ADF87820CDF810C08DF831
:101598007BB007F0CFFEDDF810C0A17A58F80C0038
:1015A8005A4607F08BFC204606F09CF9994B9A495D
:1015B800C5F82033994BC5F82433C5F8286320466D
:1015C8000A1D08F01FFB8FE0022A3CD15FFA8AF35C
:1015D80093488DF87B201C21594346184FF0000B87
:1015E8004FF0010E86F801A086F802B086F80AB01E
:1015F80000F801E0617BB4F808E06068F4608DF8F9
:101608007A103946ADF878E0CDF810C007F092FEB0
:10161800DDF810C0A17A58F80C005A4607F04EFCC5
:10162800204606F05FF97F4A32617F4A7261C6F848
:1016380018B0204606F1100106F1140208F0E2FA8B
:101648000AF1010A50E0032A35D19DF863303BB115
:1016580095F80D63204608214FF6FF7200231CE021
:10166800BDF86E2095F80D63BDF87030B2F5FA7FBD
:101678000DD96E49B1FBF2F22046482192B205F02D
:10168800B9FB05EB86066A4BC6F8F0030CE069491E
:10169800B1FBF2F22046012192B205F0ABFB05EB5B
:1016A8008606654BC6F8F003C36095F80D33013321
:1016B80085F80D3318E0042A16D1BDF868305D4A64
:1016C80095F80C6392FBF3F22046BDF86A300121CD
:1016D80092B205F08FFB95F80C3305EB86060133C3
:1016E800C6F8200485F80C3309F10209B9F1080F8E
:1016F8007FF4CEAE514B04221A700024504B514D4A
:1017080023440FCB25441034402C85E80F00F5D135
:101718004D4B1D684D4B18684D4B05F480551C68A2
:1017280000230DB1828800E0A2884A495A52023348
:10173800182BF6D133B0BDE8F08F1BB207EE103A84
:10174800DFED457A454AB8EEC77A002127EE277AB9
:101758001172B7F9EA108DED1E7A07EE101AB8EE7D
:10176800C77AB7F9EC203E4927EE277A30468DED47
:101778001F7A07EE102AB8EEC77A67EE277ACDED02
:10178800207A06F00FF9FFF71BB8012B04D80023C5
:1017980084F89930FFF702B90023FFF7E1B8BAF1EE
:1017A800010F7FF630A94FF0000AFFF701B998F84A
:1017B800003043F0020388F80030FFF733B998F897
:1017C800003043F0200388F80030FFF7C0B994F8E0
:1017D800CF30E218042182F8B4105A1C54FA82F26D
:1017E800052182F8B410DA1C023354FA83F384F822
:1017F800CF20062283F8B420FFF763BA02312044D1
:1018080084F8CF10132180F8B410FFF79DBA00BFF9
:101818000C1F0020515A0008040D0020555B0008D9
:10182800F40C0020C18F00082D5B000800A24A04B8
:10183800755B000840420F00655B000888080020BF
:10184800C4FF000898080020100500209C0900200B
:1018580094090020A209002035FA8E3C2C000020B3
:10186800240E00202DE9F04F2DED028B7C4B93B018
:10187800DB8805931AB27B4B1D686B899A420EDB95
:10188800B2F5FA6FEC7907DAD21A5443A3F5FA6382
:1018980094FBF3F4643403E0C4F1640400E06424CA
:1018A800714B724AB3F82A0193F9EE301668069024
:1018B8009BB20021079330460A46694B069F31F9CF
:1018C80003C0C7EB0C0303F2F31E40F2E637BE4534
:1018D80003D8002BB8BF5B4201E04FF4FA73022A29
:1018E8004FF06407DFF8948131D096F815E1BEF126
:1018F800000F04D07345CCBFCEEB0303002393FB4A
:10190800F7FEDFF88CA16FF0630B3AF81E900BFB23
:101918000E3B0EF1010E3AF91EA00FFA89FECEEB2E
:101928000A0E0EFB0BFE9EFBF7FECE4428F801E0E4
:1019380005EB020E9EF804E003FB0EFE4C4B9EFBEB
:10194800F3F364339BB2634393FBF7F72CE096F809
:1019580016E1BEF1000F04D07345CCBFCEEB0303F4
:10196800002393FBF7F7DFF824A16FF063093AF936
:1019780017E009FB073B0137002BB8BF5B423AF978
:101988001770CEEB070707FB0BFB9BFBF9FB079FC9
:10199800CEEB0B0E0EFB07FEA8F804E0AF797B43F5
:1019A800334F93FBF7F7643706EB020E314B9EF883
:1019B80001804FF0640E07FB08F898FBFEF802F868
:1019C800038090F80C9003F1030807FB09F999FBD1
:1019D800FEF902F8089090F81780063307FB08F71D
:1019E80097FBFEF7D754244B244F022A0CBF83F8E9
:1019F80002E09C54069B9C4502DA7B5A5B427B5270
:101A08000231062902F1010200F101007FF455AF0D
:101A18001B4ADFF84C80B2F90030DFF87890581C88
:101A2800924609D0D9F80020110705D5154A126841
:101A3800323B9A4281F21581134B1A781AB1BAF8DF
:101A48000230A8F80630084CB8F90620B4F82C3152
:101A58009A4221DBB2F5FA6FA8BF4FF4FA621CE094
:101A680020080020EC070020B4190020D807002027
:101A78000CFEFFFF560E002074180020A21F002045
:101A8800380000208C060020BA090020480E0020EB
:101A9800B41F0020800600201A46D21A4FF47A712B
:101AA8004A43C3F5FA63B2FBF3F36420964D974EAD
:101AB80093FBF0F205EB42016FF0630E0EFB02336D
:101AC80005EB4202098BB2F91AE00AB2C2EB0E0228
:101AD800534393FBF0F08E4B1A8801445206F98069
:101AE80037D58C4BDFED8C7A1A888C4B9FED8C0A9E
:101AF8001B88D31A1BB208EE903AF8EEE88A68EE13
:101B0800A78A38EE800A04F03CFEB0EE408AB0EEB8
:101B1800680A04F036FEB6F90200B6F9001006EEBF
:101B2800900A07EE901AF8EEE66AF8EEE77A20EEE9
:101B3800667AA7EE887A67EE807ABDEEC77AE6EE17
:101B4800887A17EE103AFDEEE77A338017EE903A6E
:101B58007380744E33689B0778D5734B2A6B1B6868
:101B6800DFF8A4B19A1A45F207218A426EDDCBF854
:101B7800303004F0CBFF6D4B1A78032ABBF83420C1
:101B880021D10A2A2AD9002228201A7005F047FDF7
:101B980004F0BCFFBBF8360004F00AF9644B654951
:101BA8001B68DA7890FBF2F0421C082A28BF08224A
:101BB80058791B790A7092B250435F495A435F4B78
:101BC80008801A800AE00A2A08D803221A70594A9B
:101BD80000231370584A1380584A1380534B1A78BD
:101BE800012A0ED002D3022A20D02FE0524A1188AF
:101BF800AA8E91422ADD012208201A7004F012F9F7
:101C080024E04F484D490278098822F00202027008
:101C1800AA8E914202DD02221A7015E0464909880F
:101C280001318A420ADD00221A700AE0434AA98E6D
:101C380012880132914207DD01221A70082004F04F
:101C4800F1F804F06FFE01E00720F8E733681805A3
:101C580040F19180344AA86B12682B49C0EB020B03
:101C680045F20720834540F38680314E8A63366803
:101C7800FA88B77AB4F8DE00012F03D066D3022FB2
:101C880020D065E02F4BC86B5A7B2F4B33F81220BE
:101C9800082390FBF3F792B2C01BA1F8402002443E
:101CA80092FBF3F3CA639BB240F6E4423089534394
:101CB800C0EB13334FF47A725343B6F9062093FB03
:101CC800F2F344E037894F641D49097849073FD545
:101CD8000192029306F094FC019A029B002840F0BE
:101CE800CB87D90640F1C88700FB00F2322392FB6C
:101CF800F3F2B6F90630104458434FF47A7390FB68
:101D0800F3F007446F6423E0480E0020A21F002070
:101D180084060020A01F002035FA8E3C68000020B1
:101D2800DB0FC93F1005002000050020C40B002070
:101D3800C00B0020CD000020C60B0020C80B0020DF
:101D4800C21F0020C61F0020480A002000234B6441
:101D58006B6CD5E912014FF47A7203FB0BF393FB1A
:101D6800F2F3C01841EBE371C5E91201994A002367
:101D780008F078FE2865D9F80030DA0402D50A2080
:101D880004F050F86F6D944E002F3BD0934BB26D1A
:101D980019688A429B4635D896F85C20B6F85E30BA
:101DA80079687AB9012286F85C20C95C89B186F81D
:101DB800602073B93B78053B93420AD804F09EF93A
:101DC800706606E0002286F85C20CB5C0BB186F8D2
:101DD8006020B5F85E107A687F4B525CFE2A03D10A
:101DE8000022A3F85E200DE0FF2A02D104F004F8D7
:101DF80008E0DBF800000A2616FB020201319A65AA
:101E0800A3F85E10764E33785B074FF0080008D5CC
:101E180004F07CFD072004F017FD062004F014FDF3
:101E28006EE004F011FDD9F80030DF071BD46D4BCC
:101E38001B78180702D56C4B1B7853B933780720E9
:101E480023F00103337004F0FFFC062004F05EFD6C
:101E580009E03378072043F00103337004F056FD9E
:101E6800062004F0F1FC614B1B88590719D595F839
:101E78006830B3B95E4B594A196831B94FF4967155
:101E88001960116801F59671596011685B68584AC4
:101E9800CB1A002B05DB012385F86830002313607B
:101EA800536095F8683053B14E4B1B781A0706D526
:101EB800022004F0C9FC484B002283F86820AA8E4F
:101EC800454B222A06D90022032083F8692004F012
:101ED800BBFC05E00122032083F8692004F016FD0D
:101EE80005F02CFD38B1022385F86030337823F0F3
:101EF8000103337004E03378DB0703D585F860000D
:101F08003C4E12E0022385F86030F9E7322005F0F4
:101F180086FB3B68590300F19686374B374ADA60EF
:101F280037494C368E4200F0948696F84A30012B99
:101F3800F6D1344F3368EE663B60386803685B68F7
:101F48009847002800F047862E4B18680368DB681E
:101F58009847EA6E92F848301BB9242854D10123D7
:101F680034E0012B04D14D280CBF022300232DE0BF
:101F7800022B04D13C280CBF0323002326E0032BAB
:101F880009D140284FF0000320D81371D371507144
:101F9800907104231AE0042B06D1937982F8490042
:101FA80058409071052311E0052B3CD151791379E4
:101FB8009942917906D941409171591C1344117184
:101FC800187230E081420CBF0623002382F84830A3
:101FD80029E000BF407E0500480E0020AC19002013
:101FE800C21F0020B3060020D00700207006002082
:101FF800580B0020B40A002000ED00E00400FA05A8
:102008004C0B00204C0B0020C64B1B785B070AD4F6
:10201800C54B1B681B78834205D1C44BC449196062
:10202800C44BC549D96092F84800062885D192F872
:1020380049304B2B00F0358500F2BE80322B00F082
:102048005F855BD8222B00F0158419D8032B00F08C
:1020580019820AD8012B00F00282022B40F09F85DA
:10206800052003F081FF002704E2042B00F015820D
:10207800052B40F094851A2003F076FF00271CE218
:10208800282B00F0F78414D8242B00F0DC84262BAE
:1020980040F08585062003F067FFB4F8E80003F0F8
:1020A80033FFB4F8EA0003F02FFFB4F8EC0000F0B7
:1020B8006FBD2A2B00F0F0842C2B40F070850C208B
:1020C80003F052FF94F8240103F00CFFB4F82E013A
:1020D80003F01AFFB4F82A0103F016FFB4F82C0134
:1020E80003F012FF94F8250103F0FCFEB4F8300168
:1020F80003F00AFFB4F8320100F04ABD3D2B00F0AE
:10210800B68222D8382B00F0A38411D8342B00F0E3
:10211800D483362B40F04385884B894F1878C0EB21
:10212800C000C0B203F020FF07F1200B00F006BD8D
:102138003A2B00F06D823B2B40F03185012003F0F3
:1021480013FF804B1B6800F026BD452B00F004856B
:1021580026D8402B00F0DA84422B40F0208510204E
:1021680003F002FF607903F0BDFEA06803F0D5FE1E
:1021780094F8240103F0B6FEB4F8E80003F0C4FEB6
:10218800B4F8EA0003F0C0FEB4F8EC0003F0BCFEBB
:10219800B4F8140103F0B8FEB4F8160100F0F8BC66
:1021A800462B00F0CF84492B40F0F984022003F03D
:1021B800DBFEA08900F0ECBC732B00F0038400F276
:1021C8000D816C2B00F00F8200F2A080662B00F0CE
:1021D800C98100F28A804D2B00F07184652B40F094
:1021E800DE840B2003F0C0FE574B4E4F188803F0D7
:1021F8008BFE564B1A68564B9A420CBFB5F87000C6
:10220800B5F8720080B203F07FFE524B1B68C3F32F
:10221800C000C3F38002800040EA4200C3F34002DA
:102228001043C3F3401240EAC20003F010031843FE
:1022380003F06AFE4849D9F800300A88397802F074
:102248000100C1F3800141EA4001C2F3400041EAC4
:10225800800102F008000143C2F3800041EA001146
:10226800C2F3801041EA401103F04000014303F03B
:102278008000014303F480700143C2F3001041EA77
:102288004021C2F3401041EA8021C2F3002041EA14
:10229800C02103F48050014303F40050014303F4C8
:1022A8008040014303F40040014303F480300143BC
:1022B80003F40030014303F48020014303F40020B9
:1022C800014303F480100143C2F3402041EA405126
:1022D80003F000730B43C2F3802243EA82621F4B70
:1022E800002093F800E00146FFE0682B00F06481CD
:1022F800692B40F05484DFF868B09BF80000400078
:1023080000F0FE0003F030FE002761E16F2B00F0C3
:10231800E38127D86D2B00F071816E2B00F07C8152
:1023280000F03DBCC21F0020040A0020FC9F0020D2
:10233800EFBEADDE00ED00E00400FA05080A00205B
:10234800B4190020D807002070060020440A002095
:10235800005400407C06002084060020B30A0020B8
:10236800AC0B0020702B00F0E681722B40F0178434
:10237800162003F0F9FDB4F82A0103F0C5FDB4F8FE
:10238800D00003F0C1FDB4F8D20003F0BDFDB4F8ED
:10239800D40003F0B9FDB4F86C0103F0B5FD0020DA
:1023A80003F0A0FD002003F09DFD002003F09AFD3E
:1023B80094F8190103F096FD94F8260103F092FDB4
:1023C800002003F08FFDAF4B1B68B3F95A000A23B6
:1023D80090FBF3F080B203F097FD3CE3A02B00F0F4
:1023E80024831DD8772B00F0CF820AD8742B00F0F5
:1023F8008B82752B40F0D3832F2003F0B5FDA24FBD
:1024080030E27B2B00F0BF837C2B40F0C883032095
:1024180003F0AAFD9D4B187803F076FD9C4BBAE3B8
:10242800F02B00F0F5820DD8DD2B00F0A783DE2B12
:1024380040F0B58303F0B0FDE86703F0ADFDC5F8E3
:102448008000C0E3FE2B00F0D782FF2B40F0A7836B
:10245800904A00231088A5F8743001225CE003201C
:1024680003F082FD002003F03DFD022003F03AFD59
:10247800002091E3884BD85D013703F033FD052F29
:10248800F8D1A0E3184603F06FFD022003F02AFDFF
:10249800002003F027FD01207EE30C2003F064FDFB
:1024A800082003F031FD00277C4BD85D013703F08D
:1024B80019FD082FF8D100206AE3794BD85D013760
:1024C80003F010FD0B2FF8D10027764BD85D0137AC
:1024D80003F008FD082FF8D10027734BD85D0137AA
:1024E80003F000FD072FF8D16DE371450AD26F4B59
:1024F800CB5C012707FA03F313421CBF8F40384314
:102508000131F2E703F009FD94F8100544E30133C3
:102518005200092B92B21FD0024299B2F7D04B1E3B
:10252800072B05D8DFE803F006080A0D0F1113156D
:1025380001230FE002230DE040230BE04FF48073EA
:1025480008E0802306E0202304E0102302E00823AB
:1025580000E00423A5F87430022003F005FDB5F867
:10256800740015E3122003F0FFFC514B1B88B3F5F0
:10257800806F94BF4FF0010B4FF0080B00274D4BB5
:10258800F85E90FBFBF080B2023703F0BDFC062F2B
:10259800F5D1494F388803F0B7FC788803F0B4FCCC
:1025A800B888464F03F0B0FC388803F0ADFC788853
:1025B80003F0AAFCB888EBE2102003F0D5FC002752
:1025C8003F4BD85D013703F08DFC102FF8D1FAE2AC
:1025D8009BF800309F4280F0F68238F8170003F02D
:1025E80093FC0137F4E7374F03F0BEFC388803F05B
:1025F8008BFC788803F088FC334B07E0062003F057
:10260800B3FC324B186803F088FC314B1888BFE2E2
:10261800042003F0A9FCADE2072003F0A5FCA88E76
:102628002C4FFF28A8BFFF20C0B203F05BFC286D29
:102638004FF6FF7B5845A8BF584620EAE07080B2A5
:1026480003F062FCB5F8760003F05EFC94F81931EB
:1026580043B17B6C0A2058435845A8BF584620EA26
:10266800E07002E0786C00F30F0080B290E2022084
:1026780003F07AFC94F8740103F034FC94F87301C5
:102688008AE200BFD807002037000108C51F0020D4
:1026980024000020700600203003010836030108DA
:1026A8003F0301084B03010853030108980A00205F
:1026B8002C000020941F0020F0070020AC0600200A
:1026C8005809002088070020A01F00208C06002041
:1026D800CC070020480E0020C04F0B2003F044FC1C
:1026E8003B68187803F0FEFB3B68587803F0FAFB68
:1026F8004FF0000B3A461368B84F5B440BF1010BDF
:102708001879019203F0EEFBBBF1030F019AF2D1A5
:102718003B68D87903F0E6FB3B68987803F0E2FB66
:102728003B68D87803F0DEFB3B68588903F0ECFB84
:102738003B68187A30E2212003F016FCA84B1A688F
:102748001278022A4FF000079B4675D1DFF890B245
:10275800DBF8003003EB870393ED090AB2EE048A35
:1027680020EE080A0BF0DCFE80F30800C0B203F08C
:10277800B9FBDBF80030DFED9B7A03EB870393EDC1
:102788000C0A20EE270A0BF0CBFE80F30800C0B23B
:1027980003F0A8FBDBF80030DFED937A03EB870347
:1027A80093ED0F0A20EE270A0BF0BAFE80F308001B
:1027B800C0B2013703F096FB032FC7D1072FDBF810
:1027C800003025D193ED120A20EE080A0BF0A8FE7E
:1027D80080F30800C0B203F085FBDBF8003093ED0E
:1027E800130A20EE080A0BF09BFE80F30800C0B223
:1027F80003F078FBDBF8003093F8503000EE103A25
:10280800B8EE400A0BF08CFE80F30800C0B20DE071
:102818003B44587803F066FBDBF800303B44187BF8
:1028280003F060FBDBF800303B44D87D013703F050
:1028380059FB0B2FC2D1C6E1DBF800303B44587876
:1028480003F050FBDBF800303B44187B03F04AFBF5
:10285800DBF800303B440137D87D03F043FB0B2FF6
:10286800EAD1B0E117F8010F002800F0AC8103F0BD
:1028780039FBF7E7502003F077FB4FF0000B584B7C
:102888001B680BF11E0203EB82035F1D574A5B793D
:102898000C2101FB03230BF1010B187A03F022FB37
:1028A800787803F01FFBB87803F01CFBF87803F086
:1028B80019FBBBF1140FE2D185E1482003F054FB6A
:1028C8004FF0000B464A0623126803FB0BF3C8338C
:1028D80013445F1D987A029303F004FB029B587916
:1028E80003F000FB787803F0FDFAB87803F0FAFA01
:1028F800F87803F0F7FA0BF1010B387903F0F2FAE4
:10290800BBF10C0FDED15EE14FF0000B0127002375
:10291800374A127893422EDA364A13F802E0002238
:1029280032481118105C704504D00C32B2F5A87FFB
:10293800F6D11EE04868039102930BF057FD039906
:10294800029B84460FB93A4601E0834411E0624590
:102958000FDA4868805C039101920293CDF810C0A9
:1029680003F0C0FA019ADDF810C0029B0399013206
:10297800EDE70133CCE7002F00F025815FFA8BF0FB
:1029880003F0F2FA0027C2E7DFF864B09BF8000012
:1029980003F0EAFA00279BF800309F4280F0138189
:1029A800144BF85C0023114A99189A5C824204D0AF
:1029B8000C33B3F5A87FF6D102E0087A03F092FA57
:1029C8000137E8E7082003F0CFFA0127F8B201370A
:1029D80003F088FA092FF9D1F5E000BFEC070020D1
:1029E800D80700200000C84200007A4468000108A7
:1029F800B30A0020980A0020082003F0B5FA00273F
:102A0800C24BD85B023703F07FFA082FF8D1DAE01F
:102A1800BF4F042003F0A8FA3B68B3F85E0003F048
:102A280073FA3B68B3F85C00B2E00C2003F09CFA40
:102A3800B84B186803F071FAB74B186803F06DFAD1
:102A4800B64B186897E0042003F08EFAA06892E06D
:102A5800042003F089FA94F80E0103F043FA94F87D
:102A6800120103F03FFA94F8110103F03BFA94F8CD
:102A7800130191E0072003F077FAB4F8140103F08A
:102A880043FAB4F8160103F03FFA94F8180103F07A
:102A980029FAB4F81A017BE0012003F065FA60799D
:102AA8007AE0042003F060FA94F86A0103F01AFA55
:102AB80094F86B0103F016FAB4F86C0168E0984BCF
:102AC800984F187800EB4000C0B203F04DFA4FF071
:102AD800000B934B1B789B4507F1020773D217F83D
:102AE800020C03F0FFF917F8010C00EB800000EB73
:102AF800800000F2EE2003F007FA0BF1010BE8E783
:102B0800012003F031FA94F8260145E0082003F08B
:102B18002BFA0027E319013793F81C0103F0E2F9B7
:102B2800082FF7D14FE0804AD25C904200F0A9808C
:102B38000C33302BF7D108375F4544D097F87E0126
:102B48000023F0E70D2003F00FFA002003F0CAF984
:102B5800002003F0E2F90AE0132003F005FA002749
:102B6800724BD85D013703F0BDF90B2FF8D1002067
:102B780003F0D3F9002003F0D0F924E003F002FABF
:102B8800A5F878001FE0022003F0EEF9BAF800007B
:102B980003F0BAF917E0187803F0A4F913E04E2B04
:102BA80000F0868040F2D880D22B40F05F82604BE4
:102BB8001B7803F0040303F0FF07002B00F03B82AF
:102BC800002003F0D1F9EB6E987903F08BF9EB6EE6
:102BD800002283F8482095F8B030002B3FF4A0A9D4
:102BE80037683B6838465B69984718B90A2004F08B
:102BF80016FDF6E74F4FDFF85CB13B689BF8001015
:102C0800D8044CBF4C4B4D4B1B689A880023D8B254
:102C1800884204D24A4820F813200133F7E705F028
:102C2800A1FC322004F0FBFC9BF800200023D9B261
:102C38009142BFF46BA9434951F823100968002059
:102C480008600133F3E7A3685A0340F1F583FFF7FF
:102C580064B93D4B9B68002B00F0F4833B489847D0
:102C6800F0E3059B1AB240F2DC539A427EF7E4AED9
:102C7800A8F80630FEF7E0BE12B2A2F57A70FFF7A8
:102C880033B803F02FF9B7F8800103F03DF997F84E
:102C9800820103F027F997F8830103F023F997F8E5
:102CA800850103F01FF997F8840103F01BF942E747
:102CB80052790323B2FBF3F3122B02D904F080FC00
:102CC8007EE7234F4FF0000B9B45BFF479AF02938B
:102CD80003F04DF987F8340103F054F940F2ED227E
:102CE8009042029B05DD40F6CA029042A8BF1046FA
:102CF80001E040F2EE20A0F2EE20192290FBF2F063
:102D080087F835010BF1010B0237DDE7AC1F002016
:102D1800D8070020ACF7FF1FB0F7FF1FB4F7FF1F5D
:102D2800AC0B0020E81A00200C0A00203F03010821
:102D3800C21F0020100500209C09002094090020D3
:102D480058090020D40D00205C0A0020FA0E00204B
:102D5800B419002088080020372B37D153794FF059
:102D6800070BB3FBFBFBCBEBCB029B1A13F0FF0F5C
:102D7800A4D15FFA8BFBBBF1000F3FF421AF03F046
:102D8800F6F8C14BC0B21A680023D118971C89788D
:102D980088421F4403D00833202BF6D18EE70BF16D
:102DA800FF3B5FFA8BFB002F88D0387003F0EAF8FE
:102DB800788003F0DCF8387103F0D9F8787103F003
:102DC800D6F8F87103F0D3F8B871D4E700F2BD80F3
:102DD800292B10D103F0D6F8A4F8140103F0D2F887
:102DE800A4F8160103F0C3F884F8180103F0CAF830
:102DF800A4F81A01E4E651D8252B06D10023A360D4
:102E080003F0CAF803F0A0FDDAE6272B0CD103F093
:102E1800B9F8A4F8E80003F0B5F8A4F8EA0003F05C
:102E2800B1F8A4F8EC00CBE6232B40F0018303F0C3
:102E38009EF8132807463FF641AFDFF85CB2DBF88F
:102E48000020019203F093F8904B019A03F5A871C2
:102E580093F808E0864503D00C338B42F8D12DE770
:102E68001E3702EB87021B785371571D03F07FF85A
:102E7800787003F07CF8B87003F079F8F870DBF834
:102E88000000834BC5F8AC007D30C5F8A83004F0CD
:102E98005DFB804B80F00100187091E6332B04D164
:102EA80003F065F884F826018AE6352B27D103F06C
:102EB8005EF80B2807463FF601AF774BD3F800B012
:102EC80003F055F803283FF6F9AE062303FB07BBCA
:102ED8008BF8D20003F04BF88BF8CD0003F047F8DD
:102EE8008BF8CE0003F043F88BF8CF0003F03FF8DF
:102EF8008BF8D00003F03BF88BF8D10060E62D2B5F
:102F080040F09682019203F032F884F8240103F02D
:102F180039F8A4F82E0103F035F8A4F82A0103F0D3
:102F280031F8A4F82C0103F022F884F82501019A5D
:102F38005379082B7FF644AE03F024F8A4F8300147
:102F480003F020F8A4F832013AE6412B00F065823C
:102F58002CD83C2B0BD1504FD7F800B003F007F812
:102F68008BF800003B68187803F08CFB28E63E2BB2
:102F780008D102F0FCFF84F8740102F0F8FF84F82D
:102F880073011DE6392B40F0538202F0F0FF84F8FC
:102F98000E0102F0ECFF84F8120102F0E8FF84F859
:102FA800110102F0E4FF84F8130109E6442B07D16C
:102FB8003A4B4FF400421A85012385F8B030FFE5FB
:102FC80023D8432B40F0348202F0D1FF0023A360C2
:102FD80002F0E2FF03F0B8FC02F0C9FF84F8240114
:102FE80002F0D0FFA4F8E80002F0CCFFA4F8EA0051
:102FF80002F0C8FFA4F8EC0002F0C4FFA4F8140122
:1030080002F0C0FFA4F81601DAE54A2B03D102F05A
:10301800B9FFA081D4E54C2B40F00A8202F0A7FF4B
:1030280084F86A0102F0A3FF84F86B0102F0AAFF9A
:10303800A4F86C01C4E502F09AFF022884F8100590
:103048000FD9174B83F810750BE0C0F08981D02B8E
:1030580040F0EE81134B1B7859073FF5B1AD04F0F2
:1030680013F804F0B3FE04F023FDA9E500F2328161
:10307800CD2B1BD10B4B1B785A073FF5A1AD0A4B43
:103088004FF4C8721A809BE5040A00206800010802
:10309800841A00201D000020D807002000080048DE
:1030A800B4190020C21F0020BA0B002000F22181B1
:1030B800CA2B40F09780C64B1B681B78022B73D134
:1030C8004FF0000BC24F3B68029302F050FF07EE2F
:1030D800100AF8EE477AB2EE048AC7EE887A029BA5
:1030E80003EB8B03C3ED097A3B68029302F03FFFC1
:1030F80007EE900AB8EE677ADFEDB67A029B3F6872
:10310800C7EE277A03EB8B0307EB8B070BF1010B59
:10311800C3ED0C7A02F02BFF07EE900AB8EE677A3F
:10312800DFEDAD7AC7EE277ABBF1030FC7ED0F7A53
:10313800C8D1A74FBBF1070F3B6802931DD102F01E
:1031480016FF07EE100AF8EE477A029BC7EE887A58
:10315800C3ED127A3B68029302F009FF07EE100AEA
:10316800F8EE477A029B3F68C7EE887AC3ED137A78
:1031780002F0FDFE87F8500010E002F0F8FE029B16
:103188005B4458703B68029302F0F1FE029B3F6873
:103198005B445F44187302F0EAFEF8750BF1010B0B
:1031A800BBF10B0FC5D10BE50027DFF824B2DBF824
:1031B8000030029302F0DBFE029B3B445870DBF8C0
:1031C8000030029302F0D3FE029BDBF800B03B44D0
:1031D800187302F0CCFE0BEB070301370B2FD875E1
:1031E800E3D1EDE4CC2B49D15379092B7FF666ADB9
:1031F8007A4FD7F800B0019202F0B9FE8BF80000C0
:10320800D7F800B002F0B3FE8BF8010002F0AFFE71
:103218003B686428A8BF6420187102F0A8FE3B68C8
:103228006428A8BF6420587102F0A1FE3B68FF28FB
:10323800A8BFFF20987102F09AFED7F800B0642862
:1032480028BF64208BF8070002F091FE8BF802007B
:10325800D7F800B002F08BFE8BF80300D7F800B067
:1032680002F090FE019AABF80A0053790A2B7FF618
:10327800A7AC3F6802F07BFE3872A1E4C82B40F08F
:10328800D78057797F08122F3FF618AD4FF0000B03
:10329800BB4507D002F076FE09AB23F81B000BF103
:1032A800010BF5E70023BB424D4A06DA09A931F8BC
:1032B800131022F813100133F5E7013F02EB47071B
:1032C8002232974203D0002327F8023FF9E7012270
:1032D800444B0CE0D92B4DD143480378002B7FF4A5
:1032E8006FAC02F04FFE414B1870414B01221A702F
:1032F80066E4CF2B7FF4A9AE02F044FE6FF4AF670B
:10330800C3199BB2C62B98BFA4F82A0102F03AFE53
:10331800A4F8D00002F036FEA4F8D20002F032FE83
:10332800A4F8D40002F02EFEA4F86C0102F01FFEEF
:1033380002F01DFE02F01BFE02F019FE84F81901CE
:1033480002F015FE84F8260102F011FE204B1F68DA
:1033580002F018FE00EB80004000A7F85A0014E6BF
:10336800244B1B785B073FF52BAC234B1A7842F0B4
:103378000402BCE714D8D42B3FF422AC04D202F0E8
:1033880001FE1E4B18801BE4D62B08BF00274FD127
:1033980002F0F8FD1A4BD8530237102FF8D10FE47A
:1033A800EF2B0CD10A4FD7F800B002F0EBFDABF8C9
:1033B8005E003F6802F0E6FDA7F85C0000E421D853
:1033C800DA2B35D102F0DEFDAAF80000FFF7F8BBD2
:1033D800D80700200000C84200007A44EC0700200B
:1033E800CC0E002051060020BA090020C51F00207D
:1033F80024000020C21F0020B30600206A08002015
:10340800A2090020F22B3FF4DBABFA2B10D1104BB2
:103418001B785F077FF525AE0AE0002702F0A7FDBD
:10342800E3190137082F83F81C01F7D1FFF7C8BB50
:1034380004F0C6F8FFF7C7BB40F2DC5004F0EFF821
:10344800FEF76BBD13B0BDEC028BBDE8F08F00BF7B
:10345800C21F0020A149A2480A682DE9F04F02F5D1
:103468009C43203303609F4B1E7887B0C6B1194632
:103478005B689A4240F20681013E0E7002E12B68B9
:103488009948072C98BF195D984B88BF21461B683F
:103498009847032C0CD9934A02EB44040136208147
:1034A800914B934D1A78F4B2A2421A46E7D81EE01F
:1034B8002B6804F10E0203EB82029388D28800285D
:1034C800E9D0C01A4FF47A71D31A484390FBF3F04D
:1034D800084440F6C903984205DC40F2EE239842BE
:1034E800B8BF184601E040F6CA0080B2D3E7814B66
:1034F8001B6842F2010903EA0909D9F101097E4B67
:1035080038BF4FF00009D3F800A07C4BB9F1000F89
:1035180006D17B49097819707A4908787A49087080
:103528001E781EB1784B1E7886F001066D4992F818
:103538000080D5F800B00F2381F82C30734B1F782A
:103548000322B7FBF2F202EB4202BA1AD2B201F13D
:103558002E0303EB420200244FEA480C0292254650
:10356800644556D016B16A4BE05A00E03046BBF8C5
:1035780014308342674B03D8BBF8161081421ED221
:1035880053F825309A4502D2634BE05A1BE0EBB260
:1035980018460193CDF800C004F0B8FF019BDDF890
:1035A80000C0032B0FD84F4B4FF0010E93F82C108F
:1035B8000EFA05FE21EA0E0183F82C1003E00AF545
:1035C800167143F81410B9F1000F1DD1029A454B3A
:1035D80004EB4401505293F8762022B9022F13D9F4
:1035E800012083F876004D4B581831F803E04188E4
:1035F8007144B0F804E04A33714489B2E15208B228
:10360800032390FBF3F080B2434B0135E0520234C0
:10361800A6E7344B384A93F82C10B1F10F00414219
:10362800414183F890103E4B69B13E490968490110
:1036380009D41268D9689A60521AC82A1ED9012278
:1036480083F821201AE02F481268DA6001210170FE
:103658002D48017099685B68521A9A4203D9304B19
:10366800002283F821200024444507DAE0B204F060
:103678004DFF294B23F814000134F5E7234B1A7842
:1036880001321A701B4E3368DF0405D5254B1B68C1
:10369800DD0701D403F0E4F8104B1968144B1868DF
:1036A800837A002B42D01C4A013B32F81330027B4C
:1036B8001AB1C3F53B6308339BB21BB2A3F57A7307
:1036C800B3F57A7FA8BF4FF47A7323EAE37307EE62
:1036D800903AB8EEE77ADFED147A5FE00005002053
:1036E80074060020000F0020AC0B002030000020E2
:1036F8001805002010050020AC1900200405002042
:103708000C0500200100002000000020600B0020B4
:10371800080F0020640B0020200800202E0F002036
:10372800700900208006002000007A4432681404E2
:1037380040D5A74AD2F894400C1B002C3ADB01F57F
:103748009C442034C2F89440A24CC07A6579A24CBB
:1037580034F81540A4B294FBF0F492F898000130C4
:1037680000F00F0082F89800024482F899401A4647
:103778009A48185C01330244102B92B2F8D112B265
:1037880092FBF3F31BB2642BA8BF642323EAE37311
:1037980007EE903AB8EEE77ADFED917AC7EE277A2E
:1037A800904B9FED917A67EE877AFCEEE77A17EEF9
:1037B800902A1A8033688D4C13F4807F00F0AE8015
:1037C8008B4B8C4D994203D9AB78002B00F059856F
:1037D800AB78002B00F0A280864B94F800B093F8E9
:1037E8002170854B791E4F424F411A68002FCBF349
:1037F800800B02F0806899460CBF4FF0030A4FF027
:10380800000A95F82030052B00F28280DFE803F0EB
:10381800031C20435267BBF1000F08D0002F77D15B
:10382800052003F073F8754B02221A7070E04FF40C
:103838008060B8F1000F02D002F034FB01E002F022
:1038480041FB00232B6163E0002FDAD000F026BD96
:1038580027B1052385F82030012100E03946BBF166
:10386800000F0DD0664B1B68DA89664B1A805A80A8
:103878009A80574AD2F8AC205288DA804FF0020A70
:10388800614B1A686B699A4200F2FF84BBF1000F22
:103898003BD100F0FABC237843F00203237002F016
:1038A800DFFF594B1A68EB691344AB61042385F8B1
:1038B800203022E0544B1A686FB1AB699A4227D97D
:1038C800524B1B78002B40F0E584D9F80030DA071A
:1038D80040F1E0841CE0EB691344AB6118E04A4B0B
:1038E8003B491A68D1F8AC30DB88642101FB03231B
:1038F8002B61002385F82030EB704FF4806002F0D4
:10390800E1FA052002F0A0FF7BE700297FF479AFF8
:10391800BAF1000F02D0504602F084FA3C4DB5F8D7
:10392800DE0004F06DFEAB46804618B902F0DEFEFC
:1039380002F0CCFE23785B0724D53368DF0621D557
:10394800344B1B78DD061DD4304B214D1F78002FDA
:1039580000F0B2849BF87431B8F1000F00F0A38432
:103968003BB1294A12684FF47A7101FB0323C5F869
:10397800B03095F8B4302BB102F03EFA144B002267
:1039880083F8B42000229BF872919BF87311BBF85E
:103998002C71BBF82EE192461A4D505F4FEA9A0AF5
:1039A800B842C4BF6AF07F035FFA83FA02327045F7
:1039B800B8BF4AF0400A082AEED1054D95F8B5205F
:1039C800524529D195F8B620F92A28D8013224E0A1
:1039D800000F0020C61F0020480A0020990F002071
:1039E8000000C842BE0E002000C07F44C21F002055
:1039F800404B4C007009002080060020C51F0020A5
:103A0800500B002020080020AC1900201D000020C9
:103A1800B4190020B3060020002285F8B6207E4A9B
:103A280085F8B5A010787D4F48BB3A68D0071AD5FD
:103A3800B8F1000F0AD12278D10720D5520702D455
:103A4800774A0121117005F013F818E0754A1268D9
:103A58000A2A14DC744A1288530710D4734A12785D
:103A68006AB900F058BC2278500708D5704A127815
:103A78002AB111B9B8F1000F01D102F0F1FE95F8A1
:103A8800B620DFF8DC81142A5FD1634B1A7819F16C
:103A9800000918BF4FF0010942B3BAF15F0F0ED108
:103AA800227802F0040202F0FF01A2B90B20019172
:103AB80002F0B8F95F4A019982F8B61016E0B9F138
:103AC800000F13D0BAF17D0F10D1227802F0040252
:103AD80002F0FF0112B102F0C3FE07E00B200191D2
:103AE80002F0A0F9534B019983F8B610227802F03E
:103AF800040202F0FF0142BBBAF1570F10D14E4B3E
:103B08004FF47A721A804D4B1B685A0702D54C4AFB
:103B18000A21118013F0080317D14A4A138014E0D0
:103B28003268530740F11884BAF15A0F40F01484F0
:103B3800FDE395F8B73083F0010385F8B730002B23
:103B480000F0FE830C2002F06DF93368580731D578
:103B580095F8B7309BB12378590710D53A4BB3F98C
:103B68000620BBF82C319A4209DD3B6813F00103AB
:103B780005D1364A322111802E4A82F8B7303B6887
:103B8800DA030AD5324B1A782AB9324A127812B9AE
:103B98002E4A3221118001220BE02E4B1A784AB1AD
:103BA800227802F0040202F0FF011AB919702A4BB8
:103BB80001221A70D8F80090002309F17D0A3B60B1
:103BC80009F17F0598460AF1020303EB080113F88F
:103BD80008204B7815F8010C9A420AD2294604F0BD
:103BE800C5FF30B115F8023C01229A403B681343E7
:103BF8003B6008F10408B8F1500F05F10405E2D163
:103C0800164B1F7877B3054D0C4F2B6813F0020F36
:103C180040F0328327E300BF1D000020800600200B
:103C2800800800202C11002070060020BA0900200E
:103C380004050020000F0020AA1F00207C06002099
:103C4800BC0B0020A01F00202008002068100020C6
:103C5800801000208110002082100020D91F002031
:103C6800D807002009F1CD0809F1CE0508F10103B4
:103C7800D919DA5D4B7815F8010C9A4229D22946F0
:103C880004F074FF28B395F802E0B74B287995F84B
:103C980003A00EF1FF3E0EEB4E0E9E44B34B4FF0C9
:103CA8000C0C03F1B8090CFB00FC09EB0C02516881
:103CB80071450ED0002109F80CA0C2F804E091600B
:103CC800012202FA00F093F8E82022EA000083F8C3
:103CD800E8000637482F05F10605C7D1A44BDFF8E1
:103CE800B0821D68A34B1B680293A34B1B780393F8
:103CF8000027D8F80030002B00F0AE8293F800A01F
:103D0800BAF1000F00F0A882D8F8042002998A1AA4
:103D1800002A0CDB01F5FA72C8F80420934A012145
:103D280092F8E800B94020EA010182F8E810039A05
:103D3800002A00F0918218F8041C58788B4A043144
:103D4800C9B2002840F04A828C4830F91110BBF8FB
:103D58002A0100F1C80E714502DD93F8029015E0C2
:103D6800C838814203DA9B78C3F100090EE07F4925
:103D7800012391F8E820BB4022EA0303029A81F864
:103D8800E83002F5FA73C8F8043065E292F8E820E2
:103D98003A41D30700F16082B9F1000FCCBF02208D
:103DA800012002F063F80AF1FF32132A00F24C8274
:103DB800DFE812F014001E002B003A0050005700F4
:103DC800B70029018901B801E5014A023A00460015
:103DD8005700B70029018800FC005A012A7802EB35
:103DE8000903FA2BA8BFFA2323EAE3732B7008E030
:103DF8006A7802EB0903642BA8BF642323EAE37300
:103E08006B70284602F03EF91EE2EA7802EB0903DD
:103E1800642BA8BF642323EAE373EB70584B28464E
:103E2800196802F0E9F80FE26A794A44642AA8BFDF
:103E3800642222EAE272BAF10D0F6A7100F004827C
:103E48002A7902EB0903642BA8BF642323EAE373EE
:103E58002B71F9E1AA7902EB090383F30803AB712B
:103E6800F2E1484A1268117802291FD107EE909AA8
:103E7800B8EEE77AF2EE047AC7EE277A92ED0A7A7C
:103E880077EE877AF5EEC07AF1EE10FA09D49FED55
:103E98003E7AF4EE477AF1EE10FAC8BFF0EE477AB0
:103EA80001E0DFED3A7AC2ED0A7A07E091784944F9
:103EB800C829A8BFC82121EAE1719170BAF10F0F92
:103EC80000F0C2812F4A1268117802291FD107EE2B
:103ED800909AB8EEE77AF2EE047AC7EE277A92ED76
:103EE800097A77EE877AF5EEC07AF1EE10FA09D4FE
:103EF8009FED257AF4EE477AF1EE10FAC8BFF0EE9E
:103F0800477A01E0DFED217AC2ED097A9CE1517828
:103F180001EB0903C82BA8BFC82323EAE373537036
:103F280092E1184A12681178022933D107EE109AE3
:103F3800F8EEC77A9FED147AD2ED0D6AC7EE877A4C
:103F480077EEA67AF5EEC07AF1EE10FA07D4F4EE21
:103F5800477AF1EE10FAC8BFF0EE477A01E0DFEDDC
:103F68000B7AC2ED0D7A1DE0B8010108000F0020A0
:103F7800EC070020AC1900200405002020080020D0
:103F8800F00E0020F40E00200000C84200000000DF
:103F9800BC0F0020517B4944C829A8BFC82121EA89
:103FA800E1715173BAF1100F00F04E81C84A1268DE
:103FB800117802291DD107EE109AF8EEC77A9FED05
:103FC800C57AD2ED0C6AC7EE877A77EEA67AF5EE57
:103FD800C07AF1EE10FA07D4F4EE477AF1EE10FA4F
:103FE800C8BFF0EE477A01E0DFEDBB7AC2ED0C7A8C
:103FF8002AE1117B01EB0903C82BA8BFC82323EAD8
:10400800E373137320E1B24A1268117802291FD1B1
:1040180007EE909AB8EEE77ADFEDB07AC7EE277A26
:1040280092ED107A77EE877AF5EEC07AF1EE10FA13
:1040380009D49FEDA87AF4EE477AF1EE10FAC8BFDA
:10404800F0EE477A01E0DFEDA47AC2ED107A07E0DE
:10405800117E4944C829A8BFC82121EAE171117617
:10406800BAF1110F00F0F080994A1268117802290C
:104078001FD107EE909AB8EEE77ADFED987AC7EE8F
:10408800277A92ED0F7A77EE877AF5EEC07AF1EE1D
:1040980010FA09D49FED8F7AF4EE477AF1EE10FA10
:1040A800C8BFF0EE477A01E0DFED8B7AC2ED0F7AF8
:1040B800CAE0D17D01EB0903C82BA8BFC82323EAB6
:1040C800E373D375C0E0824A1268117802291FD1C0
:1040D80007EE909AB8EEE77AF2EE047AC7EE277AFE
:1040E80092ED0B7A77EE877AF5EEC07AF1EE10FA58
:1040F80009D49FED787AF4EE477AF1EE10FAC8BF4A
:10410800F0EE477A01E0DFED747AC2ED0B7A9BE0BE
:10411800D17801EB0903C82BA8BFC82323EAE373AE
:10412800D37091E06A4A1268117802291DD107EE0E
:10413800109AF8EEC77A9FED677AD2ED0E6AC7EE4D
:10414800877A77EEA67AF5EEC07AF1EE10FA07D400
:10415800F4EE477AF1EE10FAC8BFF0EE477A01E0C4
:10416800DFED5D7AC2ED0E7A6EE0917B01EB09031B
:10417800C82BA8BFC82323EAE373937364E0544AA7
:104188001268117802291FD107EE909AB8EEE77AE3
:10419800DFED527AC7EE277A92ED117A77EE877AB9
:1041A800F5EEC07AF1EE10FA09D49FED4A7AF4EEF2
:1041B800477AF1EE10FAC8BFF0EE477A01E0DFED7A
:1041C800467AC2ED117A3FE0517E01EB0903C82B14
:1041D800A8BFC82323EAE373537635E0012833D117
:1041E80093F802E03E4B33F91110B1F5617F05DB1E
:1041F80040F633039942B8BF0B4601E04FF46173B0
:10420800BAF10C0F20D14FF49660A3F5617390FBBF
:10421800FEFE93FBFEF092F8E930C0B2834213D061
:10422800032894BF0346022382F8E9302D4A0AFB8B
:1042380003B303F212531360019001F03DFF01989C
:104248000130C0B201F012FE274B012293F8E810AA
:10425800BA400A4383F8E8200137042F08F10C0814
:104268007FF447ADCFE43368DE0540F152811F4B40
:10427800DB78002B00F04D813B68980700F1DF8068
:1042880047E10123AB70FFF7A3BA42F21073EB6169
:10429800032304E0237823F002032370052385F821
:1042A8002030FFF7AEBA53B1114B1A68D5F8B030C9
:1042B8009B1A002B03DA28E0B8F1000F1AD110205E
:1042C80001F0B0FD012385F8B430FFF75BBB00BFF8
:1042D800F40E00200000C8420000000000007A44EC
:1042E80020080020EC070020000F002070090020A3
:1042F800AC19002095F8B430002B3FF443AB01F023
:104308007BFD85F8B470FFF73DBB02F0A9FA85F88C
:10431800B480FFF737BB02F0E9F902F0D7F904F0EF
:10432800A7FB894A012182F8EB10FFF7A8BB874B4E
:104338001A78002A3FF4FDAB19700122844B08E07B
:104348000D2000E4BAF1A70F41D1824B1A7842F050
:1043580004021A70FFF7F9BBBAF15D0F07D0BAF182
:104368005B0F06D0BAF15E0F13D1032002E00120E3
:1043780000E002205FFA80F909F1FF338BF810356D
:1043880003F024FD03F094FB484601F06FFDFFF7AE
:10439800DCBBBAF1560F01D103F0B2FD6E490A78C1
:1043A80062B1BAF16F0F03D104F062FBFFF7CDBB26
:1043B800B9F1000F02D0BAF17E0FF5D0BAF1970F1C
:1043C800C0D1664B4FF4C8721A80FFF7BEBB0022FB
:1043D800BAF1BB0F059201D1022304E0BAF1B70F7D
:1043E80004D14FF6FE73ADF816300CE0BAF1BE0FEB
:1043F80001D1022305E0BAF1BD0F7FF4A6AB4FF659
:10440800FE73ADF81430D8F80030BDF81410B3F8C6
:104418005C200A44A3F85C20BDF81610B3F85E20AF
:104428000A44A3F85E2003F0D1FC03F041FB01200D
:1044380001F01CFD002385F8B630FFF786BB484B1A
:104448001B8813F0010662D102F050F9012001F037
:1044580029FD33462A6851070DD563B1012001F0C3
:1044680031FD3F4B1B889A0708D402F03FF9022020
:1044780001F018FD02E0022001F024FD23785B071B
:1044880008D4374B1B8803F044031BB1354B1A88FB
:10449800354B1A803B6813F00A0F24D02B68DB06D3
:1044A8003CD52F4B1B885E0706D4042001F0FAFC8C
:1044B8002C4B1A882C4B1A802B689C0632D5284B1B
:1044C8001B88580602D4402001F0ECFC2B685906E2
:1044D80003D5244A1188254A118013F008021A4B83
:1044E80024D183F8EA202B681A054FF4807002D58E
:1044F80001F0D8FC01E001F0E5FC9BF80530082B41
:1045080001D00E2B1CD1402001F0DCFC18E0002368
:10451800A0E7012001F0D6FC01239BE7042001F06D
:10452800D1FCC9E7402001F0CDFCCFE793F8EA20A1
:10453800002AD8D10B4A11880C4A11800122D0E7F1
:1045480007B0BDE8F08F00BF000F002081100020E9
:1045580082100020B30600201D000020BA0B0020A6
:1045680084060020A01F00206A08002068000020A0
:104578002DE9F04F2DED0C8BA24BA34D5B688FB04E
:104588000746A1489847E8B901F0B8FD9F4B9FED51
:10459800A0BA1A68DFED9F9A1860821A0AEE102AEC
:1045A800B8EE4AAA1C468AEE0BAAB4EEE9AAF1EEC6
:1045B80010FA40F3AB800022DA651A665A669A66EA
:1045C80001F066B8944BDFF87CB21A782846294681
:1045D80001F063FB914B1A889946002A00F08C8001
:1045E8005BF84C2C1278ABF150034FF0000808EE42
:1045F800102AABF1480446469A46B9F80010884A92
:10460800B1F57A7F03D1002342F808302361A85F0F
:1046180052F80830034442F80830236905EE900A3E
:104628000133012BF8EEE57A236106D10023C4EDAE
:10463800017AC4ED007AA36019E094ED006A05EEF2
:10464800903A77EEC66AB8EEE57A86EE877A36EE65
:10465800077A37EEC76AD4ED027A84ED017AE6EE7E
:10466800867A84ED007AC4ED037AC4ED027A0023D9
:104678000129AB532BF8063029D12369012B09DD19
:10468800013B00EE103AD4ED037AB8EEC00A87EE8B
:10469800800A01E09FED630A01920AF0FFF818EE24
:1046A800101A019A49B1F8EEC87AB4EEE70AF1EEA9
:1046B80010FA02DD4FF47A731CE052F808304FF418
:1046C8007A7203F5FA7393FBF2F32BF8063002368D
:1046D800062E08F1040804F114048ED1B9F800007C
:1046E800012804D101F09EFB6423CAF85830B9F8B8
:1046F8000030013BA9F800300023E95A3BF80320B9
:104708008A1AEA520233062BF7D13DE7464B474E49
:104718001B6813F0020300F06982454B30465B6862
:104728009847002800F00481424B30461A783146F9
:1047380001F0B3FA404B1A889846002A46D0002266
:10474800E06E1346B8F80010DFF8FCE036F902C056
:10475800DFF8B890B1F5C87F04BF00214EF8031008
:104768005EF8031061444EF80310043300210C2B4B
:10477800B152815202F10202E4D1B8F80030012BA3
:104788001FD1D9F870304FF4C87EC83393FBFEF3BD
:104798000380D9F87420C83292FBFEF24280D9F81F
:1047A8007830C83393FBFEFE244B1A88C2EB0E0EFA
:1047B800A0F804E03980798003F0A2FB6423C9F8EB
:1047C8005830B8F80030013BA8F800301C4B1B6883
:1047D800580740F1A080B4F87C200C4B322A35D120
:1047E800DA6E1188A3F87E1051889288A3F8822087
:1047F8003A88A3F884207A88A3F88010A3F8862042
:1048080026E000BF5C0A0020F0070020EC0F002023
:1048180000247449CDCC4C3E7C0A0020AA1F0020FD
:1048280030100020000000007C0600209A1F0020A5
:10483800500A00207D0A0020BA0B00202C0000201E
:10484800100500203C1000205C100020002A40D0F9
:104858000022D4F86C801046B4F87C30DFF8C8E346
:1048680036F902C0322B04BF00234EF800305EF840
:104878000010E14B61444EF80010043000210C2870
:10488800B15228F8021002F10202E5D1B3F87C20F7
:10489800012A19D183F8952083F89410019301F027
:1048A800C1FA019BB3F87E20A8F80020B3F8802055
:1048B800A8F80220B3F88220A8F80420B3F88420CE
:1048C800B3F886303A807B80B4F87C30013BA4F89A
:1048D8007C3094F89620C84BEAB1D3F88800D96E9A
:1048E8004FF0320E002290FBFEF083F896200880ED
:1048F800D3F88C0090FBFEF04880D3F8903093FBFF
:10490800FEFEBE4B1B88C3EB0E0EA1F804E03A80F6
:104918007A8003F0F5FAE36E31881A888A1A3280B1
:104928005A8871888A1A72809B88B288D31AB38091
:10493800B5F90430B5F90220B5F900509FEDB06A19
:1049480094ED267AAC4F9FEDBA8A9FEDAECADFEDA3
:10495800AEBADFF8D8A2DFEDADCA07EE905A06EE80
:10496800902AF8EEE77A05EE903AA7EE867AA84DF7
:10497800F8EEE66AD4ED277A84ED297AE6EE867AAF
:10498800F8EEE55AD4ED286AC4ED2A7AE5EE866A8F
:1049980094ED2C6AC4ED2B6A37EE067A94ED2F6AF3
:1049A800D5ED022A95ED013A95ED002A95ED054AD7
:1049B800D5ED044AD5ED033A95ED075AD5ED065ADB
:1049C80037EE067A94ED2D6A77EE867A94ED306AA2
:1049D80077EE867A94ED2E6A76EE866A94ED316AE1
:1049E80067EE8A7A76EE866A67EEE21A66EE8A6A79
:1049F80027EE0A7AE3EE261A95ED086A72EE211A76
:104A0800F2EE04AAC5ED001A66EEC21AE2EE871AA3
:104A180073EE211A27EE433AC5ED011AA2EE273AA2
:104A280032EE833A85ED023A27EEC43AA4EEA63A6E
:104A380033EE833A85ED033A26EEE33AA4EE073ADD
:104A480034EE833A67EE644A85ED043AE3EEA74A0A
:104A580074EE244AC5ED054A67EEC64AE5EE264AD5
:104A680066EEE56A75EEA44AE6EE076A27EE457A31
:104A780075EE266AA5EEA77AC5ED064A36EE077AE0
:104A8800C5ED076A85ED087A04F0D4F8614BD4F8CF
:104A9800C890D3F80080C84500F0D4855E4BC7F8AD
:104AA800C8801A785D4F9B46002A4FD1B7F9042079
:104AB800B7F90210D5ED077A95ED086A95ED067AF3
:104AC800B7F9003000EE902A06EE901AF8EEE00AE8
:104AD800F8EEE66A27EEE00A60EE860AA6EE860A97
:104AE800E6EEA70AF7EE007AE7EE477A05EE903A87
:104AF80060EEC70AF8EEE55AB1EE400AE5EEA70AFD
:104B080009F052FEDFED467AB4EEE70AF1EE10FA4C
:104B1800B0EE401A09D4DFED437AB4EE670AF1EE3D
:104B280010FAC8BFB0EE671A01E0B0EE671A94ED4C
:104B3800330AD4ED340A01F043FD012384ED2F8AB2
:104B480084ED308A84ED318A8BF80030B7F9022081
:104B5800B7F9001095ED019AD5ED006AB7F9047020
:104B680008EE902A07EE101AF8EEE88AB8EEC77A2F
:104B780028EE899A07EE907AA6EE879AF8EEE77AF9
:104B8800D5ED026AA6EEA79AD5ED046A84ED369AA9
:104B980068EEA68AD5ED036AE6EE878A95ED057A72
:104BA800E7EE278A28EEA8DAC4ED378AB0EE4D0A78
:104BB800A9EE090A09F072FE89EE009AB0EE4D0AD4
:104BC800A9EE090A09F06AFEB0EE40DAB0EE490A29
:104BD80009F04EFC01282DD0C8EE8D8AB0EE680A87
:104BE80009F046FC012840F0298523E033807380D2
:104BF800B38000F04DBD00BFEC0F00202C0000205A
:104C0800487D8B3ACDCC4C3DF3665F3FC2B8B23E8F
:104C18003C000020A8060020B8060020AC060020B2
:104C28009A9949C09A99494074100020800600203A
:104C3800000000005FED028A94ED2A0A94ED297ABB
:104C4800D4ED2B7A95ED08DA20EE000AA7EE070AD4
:104C5800A7EEA70A09F022FED5ED097AF4EECC7A80
:104C6800F1EE10FAB0EE409A02D5BE4BBE4A5A6237
:104C7800B4EEEB9AF1EE10FA0BD4DFEDBC7AB4EE99
:104C8800E79AF1EE10FA07DCDFEDB97AC9EE277A78
:104C980004E0F7EE007A01E0F2EE047A2DEE28DA6D
:104CA80095ED097A94ED390A6DEE277A20EE000A1F
:104CB80067EE87DA94ED387AA7EE070A09F0EEFD79
:104CC800F1EE007AB4EEE70AF1EE10FA9ABFF1EECF
:104CD800027A37EEC00ADFEDA79ADAF8003098BFFB
:104CE80060EE299AD9076DEEA99AC4ED319A06D4D7
:104CF800F2EE007A69EEA79A9F4BC3ED319AC9EBA1
:104D0800080907EE109ADFED9D7AB8EE477A27EE8C
:104D1800277AF0EE007AB4EEE77AF1EE10FA05D5CC
:104D2800B4EEEC9AF1EE10FA00F1A284D4ED3B7ADD
:104D3800B4F8F030F0EEE88A77EEA88A0133C4EDD3
:104D48003B8AA4F8F030B6F9003095ED019A95ED5C
:104D5800036A94ED1ADA5B4205EE903AB6F902302E
:104D68005B4208EE903AB6F904305B4207EE903A9F
:104D7800F8EEE88AF8EEE56AB8EEE77A28EE899A5E
:104D8800D5ED007AA7EEA69AD5ED027AA7EE879A16
:104D9800D5ED047A84ED389A68EEA77A3AEE0DDA02
:104DA800E6EE267A95ED056A84ED1ADAE6EE077ADC
:104DB80095ED076AC4ED397A68EE868A95ED066A3C
:104DC800E6EE268AD5ED086AE6EE878A9FED6C7ACC
:104DD800C4ED3A8A67EE879A29EE079A69EEA9DA4E
:104DE80068EE878AB0EE6D0AA9EE090A84ED179A73
:104DF800A8EEA80AC4ED189AC4ED198A09F04EFD68
:104E080089EE009AB0EE6D0AA9EE090AA8EEA80A82
:104E180009F044FDC9EE809A29EEA90AA9EE090A0B
:104E2800A8EEA80A09F03AFD88EE800AF0EE496A71
:104E3800E0EE086AB0EE697A90EE487A68EE697A30
:104E4800D5ED039A95ED006AD5ED058A94ED2A0A09
:104E580066EEA99AE9EE087AE6EE079A95ED049AC5
:104E680095ED066A26EE899A66EEA88AD5ED026A5D
:104E7800E6EE279AE6EE878A95ED016AC4ED3D9A3B
:104E8800A6EE079A95ED087A95ED076AE7EE278A68
:104E980020EE000A94ED297AC4ED3F8AA7EE070AAE
:104EA800A6EE279AD4ED2B7A84ED3E9AA7EEA70AB0
:104EB80009F0F4FCD5ED0A7AF4EECC7AF1EE10FAAA
:104EC80002D5284B284A9A62B4EEEB0AF1EE10FAA2
:104ED8000BD4DFED267AB4EEE70AF1EE10FA07DC20
:104EE800DFED237AC0EE277A04E0F7EE007A01E0DE
:104EF800F2EE047A95ED0A7A69EEA77AB4EEEB0A37
:104F080027EE876AF1EE10FA84ED2C6A0BD4DFEDF8
:104F1800177AB4EEE70AF1EE10FA07DCDFED147A3F
:104F2800C0EE277A04E0F7EE007A01E0F2EE047AA8
:104F380069EE277AB4EEEB0A67EE876AF1EE10FAAB
:104F4800C4ED2D6A0BD4DFED097AB4EEE70AF1EE71
:104F580010FA17DCDFED067AC0EE277A14E0F7EED8
:104F6800007A11E03C000020CDCC4C3D58A00B410C
:104F7800F3665F3FCDCCCC3DEC0F0020BD378635C6
:104F880000008039F2EE047A68EEA77ADAF8002099
:104F9800D64B27EE877AD20784ED2E7A0DD4F2EE1F
:104FA800007A26EE276A66EEA76A27EE277A83ED4F
:104FB8002C6AC3ED2D6A83ED2E7AB4EEEC0AF1EE7D
:104FC80010FA1FD5DFEDCA7A94ED407A69EEA79AF8
:104FD80029EE279AA9EE8D7A68EEA78AD4ED427A4F
:104FE80084ED407AE8EE8D7A94ED417AC4ED427A08
:104FF800A9EE0D7AD4ED437A84ED417A37EE8DDA55
:1050080084ED43DAD4ED437AB1EE047AF4EEC77A4C
:10501800F1EE10FA53DBB74B93ED007AB34B27EE62
:10502800877A93ED406AF1EE477AB4EEE76AF1EEDB
:1050380010FA07D4B4EE476AF1EE10FAC8BFB0EE22
:10504800476A01E0B0EE676AD4ED416AF4EEE76AB8
:10505800F1EE10FA07D4F4EE476AF1EE10FAC8BF81
:10506800F0EE476A01E0F0EE676AD4ED425AF4EEDA
:10507800E75AF1EE10FA08D4F4EEC75AF1EE10FA36
:10508800D4BFF0EE657AF0EE477A94ED267A84ED97
:10509800408A37EE066A94ED277A84ED266A77EE21
:1050A800266A94ED287AC4ED276A77EE277A84ED8C
:1050B800418AC4ED287A84ED428A84ED438A95EDCD
:1050C800000A84ED178A84ED188A84ED198A84ED24
:1050D8001A8A894F09F0CCF9002800F0D58297ED9B
:1050E800010A09F0C5F9002800F0CE8297ED020AFE
:1050F80009F0BEF9002800F0C782002795ED030AE1
:10510800DFF8F48109F0B4F9002800F0BF8298EDC7
:10511800040A09F0ADF9002800F0B88298ED050AF4
:1051280009F0A6F9002800F0B18295ED060ADFF82B
:10513800C88109F09DF950B198ED070A09F098F96E
:1051480028B198ED080A09F093F900B117B103F0F6
:1051580031FD1AE0D8ED067AB7EE007AF4EEC77A98
:10516800F1EE10FA06D5BFEE007AF4EEC77AF1EE4A
:1051780010FA0ADC03F05EFDD5ED067AF0EEE77A68
:10518800F4EEEA7AF1EE10FAE1DC2B68C4F810319B
:105198006B68C4F81431AB68C4F81831EB68C4F80C
:1051A8001C312B69D5ED068AC4F820316B69C4F827
:1051B8002431EB69C4F82C31B0EE680A2B6AC4EDCF
:1051C8004A8AC4F8303109F053F9A8B1F7EE007AE9
:1051D800F4EEE78AF1EE10FA11DAFFEE007AF4EE57
:1051E800E78AF1EE10FA04D9B0EE680A09F07EFAFF
:1051F80007E09FED420A04E09FED410A01E09FEDC0
:10520800410AB1EE400A84ED340AD4ED4C0A94ED1B
:105218004B0ADFED3D8ADFF80C813C4F09F0C4FAF8
:10522800D4ED440A84ED330A94ED470A09F0BCFA38
:1052380084ED350A94ED330A20EE280A09F070F956
:1052480094ED340AA8F8000020EE280A09F068F95D
:1052580094ED350ADFED2E7AB8F800303B8020EE69
:10526800670ADFED2C7A80EE270A80B2A8F80200E0
:105278007880DFF8B48030EE080A80EE2A0A09F058
:105288004FF9034682B22448B8F800C0234912F403
:10529800004F08BF0280224A1CBF03F5B473038085
:1052A800136893F800B000239E469146BBF1000FA7
:1052B8003CD005EE90BAB8EEE57AF7EE006A86EED5
:1052C800877AF25E07EE902AF8EEE77A67EE877A39
:1052D80036EEC77AD1ED006AE6EE877AC1ED007A3C
:1052E800FDEEE77A17EE90AA22E000BFEC0F00204F
:1052F800728A0E3CB01900203C000020DB0FC9BFA9
:1053080000000000DB0FC93F4C3D0F448807002018
:105318000000E144DB0F4940A01F002020110020BD
:10532800900A0020BC0700202C00002036F803A0BB
:10533800DA4A23F802A0D94A33F802A002331AFB4A
:105348000AFA9AFBFCFA062BD64401F10401ADD106
:105358006423D4ED337AB0F900109FEDD17AD14EA1
:1053680003FB0EFE9EFBFCF3F1EE677AC4F84031B6
:10537800CDED027AB5F92C30D4ED347ACB1AF1EEB2
:10538800677ACDED037A07EE903AB2F90210B2F9D6
:105398000030B2F90420F8EEE77A09EE901A67EEC9
:1053A800877A02A805A909EE103AF8EEE99ACDED38
:1053B800047A08EE902A02F0F5FA9DED087ADDED00
:1053C800057ADDED09AADDED076AD9F80030B8EEF7
:1053D800C99A29EE870AF8EEE88AA9EE270A5B78C7
:1053E800DDED0B7A69EEAAAAA8EEA70A012BDDED7E
:1053F800067AE9EE27AADDED0C7AE8EEA7AADDED3C
:105408000A7A69EEA77A2AEE0BAAE9EE267ADDED8A
:105418000D6ABCEECAAAE8EEA67A1FD1A24B1B7889
:105428005B0713D4B36D8BB1D6F84421082192FBE6
:10543800F1F1511A06EE901AF8EEE66A013B76EEA3
:10544800A76AB365FDEEE66AC6ED516AD4F8443141
:10545800082293FBF2F20BEE102A03E0B8F8008062
:105468000BEE108AB8EECBBA904D37EECBBA09F0F6
:1054780057F8D4F84861317801F074F92B68B0EE28
:105488006A0A1844286009F04BF8317801F06AF983
:105498006B68B0EE4B0A1844686009F041F896F85A
:1054A8000180414601F05EF9AB6894ED34BAD4ED61
:1054B80033CA1844B0EE4B0AA86008F0F5FFF0EEC6
:1054C80040AAB0EE4B0A09F075F8B0EE40CAB0EE4B
:1054D8006C0A09F06FF8F0EE40BAB0EE6C0A08F00A
:1054E800E3FF6BEE8C5AB0EE407AA5EE887A704BEB
:1054F80060EE0C6AF0EE657AE0EE487A03F1540249
:1055080003F12401B0EE665AABEE885AF0EE475A22
:1055180084ED577AB0EE6B7A6BEEAABA96EE887A7B
:105528002AEE886AC4ED547A25EEA98A67EEA97A2C
:10553800C4ED5D9A6BEEA99AB1EE4CCAEAEE897A8F
:10554800A6EE098AECEE099AF0EE476A84ED587ADD
:1055580020EE2A7AE5EE287AA6EEA88AE7EE289ABF
:10556800C4ED53AA84ED555A84ED566A84ED59CAA0
:10557800C4ED5ABA84ED5B7A84ED5C9AC4ED5E8A18
:10558800C4ED657A84ED668AC4ED679A53F8080C11
:1055980042F8080C53F8040C42F8040C53F80C0BAE
:1055A80042F80C0B8B42F1D13578424CFDEEE77A8C
:1055B800294617EE900A01F0D5F82368BDEEC88A8F
:1055C80018442060294618EE100A01F0CBF86368E9
:1055D800FDEEE99A18446060414619EE900A01F020
:1055E800C1F8A3681844344BA0601A681AEE101A60
:1055F8000A441A60314B1A6801321A60304B1A6833
:1056080001321A602F4BB3F90020B7F90230002B92
:10561800B8BF5B4293422C4B0BDA2C49B1F900100E
:105628000029B8BF4942914203DA1A7842F00802C9
:1056380002E01A7822F008021A7029E0D9EE088AE6
:10564800FFF7FABADFED227A97ED2F7A27EE277A5D
:1056580087ED2F7A97ED307A27EE277A87ED307A23
:1056680097ED317A67EE277AC7ED317AFFF76BBB92
:10567800DFED187A2DEE27DAD4ED427AEDEE077ACF
:10568800C4ED427AFFF752BB012737E501274CE505
:105698000FB0BDEC0C8BBDE8F08F00BF941F00204D
:1056A80035FA8E3CEC0F0020C21F002000070020B6
:1056B80040110020C8090020100700200C07002016
:1056C800E00900208E0A0020B30600208807002089
:1056D800EC51783F0AD7233C30B500221346141802
:1056E80020490C5D83EA0423082413F4004F4FEA91
:1056F800430318BF83F4815304F1FF3418BF83F0C8
:10570800010314F0FF049BB2EFD10132192AE6D14C
:1057180000F119028D5C00F11A028A5C02EB052285
:1057280092B29A421DD1104B1D782346DAB2AA4292
:1057380014D2441C04EB4202D2B28C5C01328A5C63
:1057480002EB0424A4B24FF4AF6254432413074A73
:1057580004F5487422F813400133E7E7044B0122AB
:105768001A7030BDB0110020B70B0020D2110020F4
:105778005006002003788B4283BF034B03EB4101A3
:10578800488C0020704700BFB011002003788B427E
:105798000AD9064B1A78064B53F8210002B1400883
:1057A80000F5777080B270470020704770180020AD
:1057B8003805002007299ABF024B33F82100002042
:1057C800704700BF30060020024B33F81100C008B4
:1057D800704700BFF8050020094BDFED0A7A53F83F
:1057E800213006EE903AF8EE666AB6EE047AE6EEF6
:1057F800877AFCEEE77A17EE900A80B2704700BF0E
:105808006C05002000005C44014B33F81100704720
:10581800CC0E0020014B33F81100704756060020CB
:10582800014B33F8110070475606002000207047DE
:105838002DE9F04F87B09A4601925D4A0490548949
:105848000591200200214FF0000BBAEB000A6BEB28
:10585800010B908806041089A0FB0A4500FB0B5534
:10586800E00940EA456016EB000850884FEAC03668
:10587800D08892894FEAE511A0FB0A4500FB0B5539
:105888004FEA14204FF0000740EA056047EB010992
:1058980036184FEA25214FF0000747EB0107AAFB0E
:1058A800020102FB0B11C20D42EA412212F5FA6015
:1058B8004FEAE15343F10001CDE90201B0F5FA6F77
:1058C80071F1000159DAA2FB024502FB03F14FF026
:1058D800050C05EB4105A4FB0C010CFB05114D1053
:1058E8004FEA3004B8EB040869EB0509840844EA78
:1058F80081748D10361B67EB0507DDE902452D48DD
:105908004FF0FF3184428D4124DA40F6AC50121832
:105918004FF0000143EB010302FB03F1A2FB02235A
:1059280003EB41036FF00600544200FB0344A2FB63
:10593800000118EB000821444FF00B0449EB010962
:10594800A2FB040104FB031149104FEA3000361A88
:1059580067EB01070AFB0BF3DDE90201AAFB0AABBF
:105968000BEB430B4FEADA7242EA4B024FEAEB7356
:10597800801A61EB0301CDE902010199049CA1FBA6
:10598800062301FB0733500D40EAC3205915B0EB3D
:10599800080061EB0901C20B42EA414204B12260EE
:1059A800059D0DB10298286007B0BDE8F08F00BFD3
:1059B8007E0A002024FAFFFF016BC268034610B577
:1059C800406941B1196C541A0139005D18BF0A4683
:1059D800C0B21A6410BD196A405C0131914228BFF7
:1059E8000021C0B2196210BD036B13B15A68036C71
:1059F80001E0C269036A9A423BBFC0688018C3EBE2
:105A08000200C3EB0000C0B27047436B13B190F8BB
:105A180044007047826A436AD31A58425841704713
:105A2800436A816A02698B4238BF9B185B1A416BD3
:105A380021B149680B44511E8B4203D2013AD31A53
:105A4800D8B2704700207047334A136C90681944E5
:105A5800081A40F68C23984210B513469160D0601E
:105A680051603CD9127893F945108A420BD1111F25
:105A7800082908D893F84610182901D8013103E0FD
:105A880083F8442002E0002183F8461093F944107B
:105A98008A421CD1204991F84710C1B10021914296
:105AA8001E4806DA03EB8104246920F8114001310D
:105AB800F5E7511E00EB41011630814203D0002466
:105AC80021F8024FF9E7164908780130087083F881
